:100000000C94EB020C945F02189500001895000008
:10001000189500001895000018950000189500002C
:10002000189500001895000018950000189500001C
:10003000189500001895000018950000189500000C
:100040000C947000189500000C94C9000C942101C8
:1000500018950000189500001895000018950000EC
:1000600018950000189500000F931F930BE91FE0EF
:1000700001501040E9F7000000001F910F910F930D
:100080001F930CE91FE001501040E9F70000000049
:1000900000001F910F910150104089F70000089552
:1000A0002F9322D12F910895259A03E004BD0AE0F1
:1000B00005BD0EE407BD01E000936E0000916E00E7
:1000C000016000936E000895EF93FF9300E011E04C
:1000D000E0E0F1E001931A95E9F7FF91EF910895BF
:1000E0000F931F930FB70F93109101011395109366
:1000F00001011F3F61F000910001101708F02D98D9
:1001000008F42D9A0F910FBF1F910F911895C8DF1A
:10011000F9CF00910401000F2BF00DF0039500932F
:1001200004010895DDF3FBCF0895089578941091AC
:100130004C01E11710914D01F107C9F3089508959D
:100140000091C00005FFFCCF1093C600089500E0A9
:100150000093C50007E60093C40006E00093C200C8
:1001600000E00093C00008E90093C10007E000939D
:10017000280101E0009329010AE200934A0101E00D
:1001800000934B010AE200934C0101E000934D0102
:1001900008950F931F930FB70F930091C600CFDF01
:1001A00005D00F910FBF1F910F911895EF93FF93FB
:1001B000E0912801F09129010A3061F00D3029F019
:1001C0000193E73211E0F10728F000E00083ADDF92
:1001D000E7E0F1E0E0932801F0932901FF91EF912E
:1001E00008950FF468940FF0E894F8940F93EF9348
:1001F000FF93E0914A01F0914B013196EA3411E00E
:10020000F10710F0EAE2F1E010914C01E1171091D2
:100210004D01F10709F48ADF0083E0934A01F0936E
:100220004B010091C10005FD06C00091C1000062B4
:100230000093C10010D0FF91EF910F910EF47894CC
:1002400008950F931F930FB70F9305D00F910FBF12
:100250001F910F911895EF93FF93E0914C01F0914E
:100260004D0110914A01E11710914B01F10789F0FE
:100270003196EA3411E0F10710F0EAE2F1E0008192
:100280000093C600E0934C01F0934D01FF91EF9174
:1002900008950091C1000F7D0093C10045DFFF91DB
:1002A000EF91089500E00093000108959CD005E3CC
:1002B00037D10FEF0093000105E000934F01009349
:1002C00051010091500100934E0108950895EF935C
:1002D000FF93EEE4F1E022E000E001932A95E9F7D4
:1002E000FF91EF910895089500914E01015020F083
:1002F00000934E0109F4DADF00914F01015020F024
:1003000000934F0109F4CEDF0895EE0FFF1F059112
:10031000003009F4089565DFFACF0895E0935201A3
:10032000F0935301FF91EF91EE0FFF1F0591003005
:1003300011F057DFFBCF3196F695E795EF93FF93DA
:10034000E0915201F091530108950191003009F4B8
:10035000089547DFFACF08950F2F02953BD00F2F56
:1003600039D00E2F029536D00E2F34D0089500E3E9
:100370000093540110E127E219D018EE23E016D0C3
:1003800014E620E013D01AE020E010D000E30E0FB6
:1003900028DF0895EE0FFF1F08F000E308F401E3E3
:1003A0001F931FDF1F911A95A9F7089500E3E11726
:1003B000F20720F0E11BF20B0395F9CF003331F483
:1003C00010915401103321F4089502C00093540198
:1003D00008DF08950F700A3008F4005D003108F45A
:1003E000095CFFDE08951F93EF93FF932A981B99F2
:1003F000FECF0FE7DCD0E5E5F1E010E10191D7D0C9
:100400001A95E1F72A9AFF91EF911F9108951F9392
:10041000EF93FF932A981B99FECF0FEFC8D0E5E624
:10042000F1E010E10DE3C3D00091750101931A953D
:10043000C9F70DE3BCD00091750100580093760117
:100440000DE3B5D000917501009377012A9AFF91D1
:10045000EF911F910895229A2A9A249A219A03E1F2
:1004600010E001501040E9F70000000000002A9859
:1004700007E210E001501040E9F700000000000022
:100480002A9A03EA10E001501040E9F7000000004A
:1004900000002A981B99FECF00E342D01B99FECFA3
:1004A0002A9A29D00EE30F7310EC79D003E0009361
:1004B000690001E00CBB0DBB04E332D008950F933B
:1004C0001F930FB70F93A3DFEF93FF93E091760194
:1004D000F0E04DDFFF91EF9121DF0D000FEF009372
:1004E000000104E100934F01009351010F910FBFF0
:1004F0001F910F9118951F93EF93FF932A981B99C3
:10050000FECF00E454D0ECE2F5E019E204914FD0C4
:1005100032961A95D9F72A9AFF91EF911F91089573
:100520002A981B99FECF43D02A9A089507002E00DF
:1005300006004700D300910010000C0044000000AA
:10054000000006000000210062007600CA0083005F
:1005500013002200F800350007003F0018001600C5
:100560006C0043004000910087006B00FB005600C8
:100570001000E9002A0000001F004100000059009F
:100580007F003F00810035002E002A981B99FECF86
:100590000ED00DE30CD0009175012A9A08952A9887
:1005A0001B99FECF04D0012F02D02A9A08951F93E1
:1005B0000894001F01C0000F10F02C9801C02C9A65
:1005C000299A110F1B99139529980038A1F71093B8
:1005D00075011F9108950FEF0DBF08E00EBF03E6F0
:1005E00010E042DDE0E0F1E000E00193E03019E0EE
:1005F000F107D9F7EEE1F0E0EA950083E9F7332758
:1006000053DDA5DD70DE27DF789404E50093550106
:1006100005E60093560103E70093570104E70093B2
:10062000580101E30093590102E300935A0103E3E7
:1006300000935B0101E200935C010EE200935D0117
:100640006DDE53746172740D0A0080C0CCDE66DE0C
:100650000D0D426173650D0005E3005496DFEF93C5
:10066000FF93E02FF0E078DEFF91EF910BE3005471
:100670008CDFEF93FF93E02FF0E06EDEFF91EF91C0
:100680004DDE0D000AE3005480DFEF93FF93E02F6F
:10069000F0E062DEFF91EF9141DE0D003FDE0D0DD7
:1006A00053656E640D0003E610E0DEDC05E338DF21
:1006B00005E300546ADFEF93FF93E02FF0E04CDE98
:1006C000FF91EF912BDE0D000BE300545EDFEF9303
:1006D000FF93E02FF0E040DEFF91EF911FDE0D0071
:1006E0000AE3005452DFEF93FF93E02FF0E034DE93
:1006F000FF91EF9103E610E0B7DC05E3005445DF1E
:10070000EF93FF93E02FF0E027DEFF91EF9106DEFD
:100710000D0D53656E645F456E640D000BE3005470
:1007200034DFEF93FF93E02FF0E016DEFF91EF91BF
:10073000F5DD0D000AE3005428DFEF93FF93E02F6F
:0E074000F0E00ADEFF91EF91E9DD0D00FFCF42
:00000001FF
